{
  "contractName": "iotBlockchain",
  "abi": [
    {
      "constant": true,
      "inputs": [],
      "name": "T",
      "outputs": [
        {
          "name": "id",
          "type": "uint256"
        },
        {
          "name": "content",
          "type": "string"
        },
        {
          "name": "timestamp",
          "type": "string"
        }
      ],
      "payable": false,
      "stateMutability": "view",
      "type": "function",
      "signature": "0x2bc80f3a"
    },
    {
      "constant": true,
      "inputs": [],
      "name": "taskCount",
      "outputs": [
        {
          "name": "",
          "type": "uint256"
        }
      ],
      "payable": false,
      "stateMutability": "view",
      "type": "function",
      "signature": "0xb6cb58a5"
    },
    {
      "inputs": [],
      "payable": false,
      "stateMutability": "nonpayable",
      "type": "constructor",
      "signature": "constructor"
    },
    {
      "anonymous": false,
      "inputs": [
        {
          "indexed": false,
          "name": "id",
          "type": "uint256"
        },
        {
          "indexed": false,
          "name": "content",
          "type": "string"
        },
        {
          "indexed": false,
          "name": "timestamp",
          "type": "string"
        }
      ],
      "name": "TaskCreated",
      "type": "event",
      "signature": "0x3aa7994277fd1283665573abffa8b1ef095947ad76908721a82ac157e8953d5a"
    },
    {
      "constant": false,
      "inputs": [
        {
          "name": "_content",
          "type": "string"
        },
        {
          "name": "ts",
          "type": "string"
        }
      ],
      "name": "createTask",
      "outputs": [],
      "payable": false,
      "stateMutability": "nonpayable",
      "type": "function",
      "signature": "0x292a4585"
    }
  ],
  "bytecode": "0x60806040526000805534801561001457600080fd5b506100986040805190810160405280600d81526020017f67656e6573697320626c6f636b000000000000000000000000000000000000008152506040805190810160405280600381526020017f6e6f77000000000000000000000000000000000000000000000000000000000081525061009d640100000000026401000000009004565b6102a3565b6000805460019081019182905560408051606081018252838152602080820187905291810185905292825584516100da9160029190870190610208565b50604082015180516100f6916002840191602090910190610208565b509050507f3aa7994277fd1283665573abffa8b1ef095947ad76908721a82ac157e8953d5a6000548383604051808481526020018060200180602001838103835285818151815260200191508051906020019080838360005b8381101561016757818101518382015260200161014f565b50505050905090810190601f1680156101945780820380516001836020036101000a031916815260200191505b50838103825284518152845160209182019186019080838360005b838110156101c75781810151838201526020016101af565b50505050905090810190601f1680156101f45780820380516001836020036101000a031916815260200191505b509550505050505060405180910390a15050565b828054600181600116156101000203166002900490600052602060002090601f016020900481019282601f1061024957805160ff1916838001178555610276565b82800160010185558215610276579182015b8281111561027657825182559160200191906001019061025b565b50610282929150610286565b5090565b6102a091905b80821115610282576000815560010161028c565b90565b610615806102b26000396000f3fe6080604052600436106100565763ffffffff7c0100000000000000000000000000000000000000000000000000000000600035041663292a4585811461005b5780632bc80f3a14610197578063b6cb58a514610291575b600080fd5b34801561006757600080fd5b506101956004803603604081101561007e57600080fd5b81019060208101813564010000000081111561009957600080fd5b8201836020820111156100ab57600080fd5b803590602001918460018302840111640100000000831117156100cd57600080fd5b91908080601f016020809104026020016040519081016040528093929190818152602001838380828437600092019190915250929594936020810193503591505064010000000081111561012057600080fd5b82018360208201111561013257600080fd5b8035906020019184600183028401116401000000008311171561015457600080fd5b91908080601f0160208091040260200160405190810160405280939291908181526020018383808284376000920191909152509295506102b8945050505050565b005b3480156101a357600080fd5b506101ac610423565b604051808481526020018060200180602001838103835285818151815260200191508051906020019080838360005b838110156101f35781810151838201526020016101db565b50505050905090810190601f1680156102205780820380516001836020036101000a031916815260200191505b50838103825284518152845160209182019186019080838360005b8381101561025357818101518382015260200161023b565b50505050905090810190601f1680156102805780820380516001836020036101000a031916815260200191505b509550505050505060405180910390f35b34801561029d57600080fd5b506102a6610548565b60408051918252519081900360200190f35b6000805460019081019182905560408051606081018252838152602080820187905291810185905292825584516102f5916002919087019061054e565b506040820151805161031191600284019160209091019061054e565b509050507f3aa7994277fd1283665573abffa8b1ef095947ad76908721a82ac157e8953d5a6000548383604051808481526020018060200180602001838103835285818151815260200191508051906020019080838360005b8381101561038257818101518382015260200161036a565b50505050905090810190601f1680156103af5780820380516001836020036101000a031916815260200191505b50838103825284518152845160209182019186019080838360005b838110156103e25781810151838201526020016103ca565b50505050905090810190601f16801561040f5780820380516001836020036101000a031916815260200191505b509550505050505060405180910390a15050565b6001805460028054604080516020838716156101000260001901909316849004601f810184900484028201840190925281815293949392918301828280156104ac5780601f10610481576101008083540402835291602001916104ac565b820191906000526020600020905b81548152906001019060200180831161048f57829003601f168201915b50505060028085018054604080516020601f600019610100600187161502019094169590950492830185900485028101850190915281815295969594509092509083018282801561053e5780601f106105135761010080835404028352916020019161053e565b820191906000526020600020905b81548152906001019060200180831161052157829003601f168201915b5050505050905083565b60005481565b828054600181600116156101000203166002900490600052602060002090601f016020900481019282601f1061058f57805160ff19168380011785556105bc565b828001600101855582156105bc579182015b828111156105bc5782518255916020019190600101906105a1565b506105c89291506105cc565b5090565b6105e691905b808211156105c857600081556001016105d2565b9056fea165627a7a72305820c1c4435468d792eec2259424b49719dea252f2bd0f4fe85a70cc6e58d554fe1e0029",
  "source": "pragma solidity ^0.5.0;\n\ncontract iotBlockchain {\n  uint public taskCount=0;\n\n  constructor() public {\n        createTask(\"genesis block\",\"now\");\n      }\n\n  struct Task {\n    uint id;\n    string content;\n    string timestamp;\n  }\n\n    event TaskCreated(\n    uint id,\n    string content,\n    string timestamp\n  );\n\n  Task public T;\n  function createTask(string memory _content,string memory ts ) public {\n    taskCount ++;\n    T=Task(taskCount, _content,ts);\n    emit TaskCreated(taskCount, _content,ts);\n  }\n}\n\n",
  "sourcePath": "/home/dheeraj/Documents/RPi-DApp/frontend/contracts/iotBlockchain.sol",
  "compiler": {
    "name": "solc",
    "version": "0.5.0+commit.1d4f565a.Emscripten.clang"
  },
  "schemaVersion": "3.0.1",
  "updatedAt": "2020-08-10T17:38:45.206Z",
  "devdoc": {
    "methods": {}
  },
  "userdoc": {
    "methods": {}
  }
}